:100000000C9463000C948B000C948B000C94F602FF
:100010000C94F6020C94F6020C948B000C948B005A
:100020000C948B000C948B000C948B000C948B0024
:100030000C948B000C948B000C948B000C948B0014
:100040000C94C8030C948B000C9496030C947003CE
:100050000C948B000C948B000C948B000C948B00F4
:100060000C948B000C948B0000000008000201002F
:100070000003040700000000000000000000000072
:1000800023002600290000000000240027002A0089
:1000900000000000250028002B00040404040404D0
:1000A0000404020202020202030303030303010227
:1000B00004081020408001020408102001020408F6
:1000C0001020A404310711241FBECFEFD8E0DEBFFB
:1000D000CDBF11E0A0E0B1E0ECE8F3E102C0059093
:1000E0000D92A633B107D9F722E0A6E3B1E001C033
:1000F0001D92A034B207E1F710E0C2E6D0E004C0E0
:100100002197FE010E94B309C136D107C9F70E94A9
:100110008A050C94EF070C94000020918201309125
:1001200083012817390771F4909181018091800132
:10013000981741F0E0918101F0E0E05CFE4F808192
:1001400090E008958FEF9FEF089508951F93CF9348
:10015000DF93DC015C968D919C915D97009739F45B
:1001600021E030E013963C932E9312973BC05196BA
:10017000ED91FC91529750962C915097322F3095DB
:100180001FB75E964C915E97742F727041FD60951B
:10019000F8944081772311F0422B01C04323408320
:1001A000EC012197F1F748E0508160FF02C0522B2B
:1001B00001C053235083EC012197F1F7669541501C
:1001C00099F78081772319F08323808302C0282B3D
:1001D00020831FBF5C968D919C915D970197F1F7ED
:1001E00081E090E0DF91CF911F91089520918201ED
:1001F000309183012817390771F480918001209193
:10020000810190E0805C9F4F821B910960E470E067
:100210000E948B09089580E090E00895209182016A
:100220003091830128173907B9F4909181018091A9
:100230008001981789F0E0918101F0E0E05CFE4FC9
:1002400080812091810130E02F5F3F4F2F73332752
:100250002093810190E008958FEF9FEF0895FC01B6
:10026000538D448D252F30E0842F90E0821B930B1B
:10027000541710F0CF96089501970895FC01918DC1
:10028000828D981761F0828DDF01A80FB11D5D96F8
:100290008C91928D9F5F9F73928F90E008958FEF66
:1002A0009FEF0895FC01918D828D981731F0828D1A
:1002B000E80FF11D858D90E008958FEF9FEF089571
:1002C000FC01918D228D892F90E0805C9F4F821BD5
:1002D00091098F7399270895FC01848DDF01A80F80
:1002E000B11DA35ABF4F2C91848D90E001968F735E
:1002F0009927848FA689B7892C93A089B1898C917D
:10030000837080648C93938D848D981306C00288CB
:10031000F389E02D80818F7D80830895EF92FF9295
:100320000F931F93CF93DF93EC0181E0888F9B8D18
:100330008C8D981305C0E889F989808185FD26C0D8
:10034000F62E0B8D10E00F5F1F4F0F731127E02E5D
:100350008C8DE8120CC00FB607FCFACFE889F9893A
:10036000808185FFF5CFCE010E946C01F1CF8B8D8E
:10037000FE01E80FF11DE35AFF4FF0829FB7F8949A
:100380000B8FEA89FB89808180620AC09FB7F8944D
:10039000EE89FF896083E889F989808183708064B0
:1003A00080839FBF81E090E0DF91CF911F910F91FB
:1003B000FF90EF900895CF93DF93EC01888D882311
:1003C000C9F0EA89FB89808185FD05C0A889B989C2
:1003D0008C9186FD0FC00FB607FCF5CF808185FF9D
:1003E000F2CFA889B9898C9185FFEDCFCE010E940B
:1003F0006C01E7CFDF91CF910895CF92DF92EF921A
:10040000FF920F931F93CF93DF936C017A018B01BF
:10041000C0E0D0E0CE15DF0581F0D8016D918D01EF
:10042000D601ED91FC910190F081E02DC601099576
:10043000892B11F02196EECF7E01C701DF91CF917C
:100440001F910F91FF90EF90DF90CF900895089546
:1004500080E090E008953FB7F89480913C0190913E
:100460003D01A0913E01B0913F0126B5A89B05C07A
:100470002F3F19F00196A11DB11D3FBFBA2FA92F23
:10048000982F8827820F911DA11DB11DBC01CD01A0
:1004900042E0660F771F881F991F4A95D1F708958C
:1004A0008F929F92AF92BF92CF92DF92EF92FF9284
:1004B0006B017C010E942B024B015C01C114D10431
:1004C000E104F104F1F00E942B02DC01CB01881958
:1004D0009909AA09BB09883E9340A105B10570F3AB
:1004E00021E0C21AD108E108F10888EE880E83E005
:1004F000981EA11CB11CC114D104E104F10419F728
:10050000DDCFFF90EF90DF90CF90BF90AF909F90A6
:100510008F9008955F985E9A2A9A08955C985D9AE4
:10052000299A08955F9A5E982A9A08955C9A5D9830
:10053000299A089542E050E068E271E084E891E091
:100540000C94FD010E9455080E94980720E931E0B3
:1005500040E050E00E94F207CB0180579E4F089583
:100560000F931F935A9883E090E00197F1F75A9AFE
:1005700083E290E00197F1F75A98E1EBF0E06491A3
:10058000EDE9F0E0E491F0E0EE0FFF1FE458FF4FDB
:100590008591949100E412E42FE030E0462F0E9410
:1005A0001204611571058105910549F0DC01CB014B
:1005B0000196A11DB11DBC01CD019F7003C060E07B
:1005C00070E0CB010E94920826E933E44BE05DE342
:1005D0000E94F60820E030E040E05FE30E94F60869
:1005E0000E945A08CB011F910F9108951F920F92FC
:1005F0000FB60F9211242F933F934F935F936F93F6
:100600007F938F939F93AF93BF93EF93FF93E0916B
:100610008201F0918301309709F451C0968DA6852F
:10062000B785858591FF04C09C91892329F447C033
:100630009C91892309F043C0A389B4899C91858941
:10064000809589238C93868997890197F1F7608D2E
:10065000718DA685B785558538E020E0CB010197DF
:10066000F1F7822F90E095958795282F4C9145239F
:1006700009F02068315091F7868D81FD2095809199
:10068000800190E001968F7399273091810138178E
:1006900049F0A0918001B0E0A05CBE4F2C93809304
:1006A000800103C0868D8160868F828D938D019736
:1006B000F1F7A389B4899C918589892B8C93FF914B
:1006C000EF91BF91AF919F918F917F916F915F91CA
:1006D0004F913F912F910F900FBE0F901F90189543
:1006E0001F920F920FB60F9211242F933F934F93A7
:1006F0005F936F937F938F939F93AF93BF93EF938A
:10070000FF9384E891E00E946C01FF91EF91BF910B
:10071000AF919F918F917F916F915F914F913F9199
:100720002F910F900FBE0F901F9018951F920F9250
:100730000FB60F9211242F938F939F93EF93FF93F4
:10074000E0919401F09195018081E0919A01F091FE
:100750009B0182FD12C0908180919D018F5F8F73FC
:1007600020919E01821751F0E0919D01F0E0EC573D
:10077000FE4F958F80939D0101C08081FF91EF9185
:100780009F918F912F910F900FBE0F901F901895F2
:100790001F920F920FB60F9211242F933F938F93B6
:1007A0009F93AF93BF938091380190913901A091AD
:1007B0003A01B0913B013091370123E0230F2D37EF
:1007C00020F40196A11DB11D05C026E8230F029655
:1007D000A11DB11D209337018093380190933901F9
:1007E000A0933A01B0933B0180913C0190913D016F
:1007F000A0913E01B0913F010196A11DB11D8093D2
:100800003C0190933D01A0933E01B0933F01BF9105
:10081000AF919F918F913F912F910F900FBE0F90AD
:100820001F901895CF92DF92EF92FF920F931F9334
:10083000E82FF92F05C0015011092109310961F193
:10084000908196239417B9F305C00150110921092D
:10085000310911F1908196239413F7CFC12CD12C3B
:10086000E12CF12C0AC08FEFC81AD80AE80AF80A5E
:100870000C151D052E053F0579F080818623841710
:1008800091F36C2D7D2D8E2D9F2D1F910F91FF903B
:10089000EF90DF90CF90089560E070E080E090E00E
:1008A0001F910F91FF90EF90DF90CF90089590E00F
:1008B000FC01E859FF4F2491FC01E255FF4F3491B0
:1008C000FC01E656FF4FE491EE2309F43CC02223DD
:1008D00039F1233091F038F42130A9F0223001F5BC
:1008E00084B58F7D12C0273091F02830A1F02430DC
:1008F000B9F4809180008F7D03C0809180008F7754
:10090000809380000DC084B58F7784BD09C080912D
:10091000B0008F7703C08091B0008F7D8093B000CE
:10092000F0E0EE0FFF1FE057FF4FA591B4919FB786
:10093000F894611104C08C913095382302C0EC9179
:100940003E2B3C939FBF08950F931F93CF93DF934C
:10095000109287011092860188EE93E0A0E0B0E04B
:100960008093880190938901A0938A01B0938B01B1
:1009700028E031E0309385012093840125EC30E0BC
:10098000309391012093900124EC30E03093930157
:100990002093920120EC30E0309395012093940154
:1009A00021EC30E0309397012093960122EC30E067
:1009B000309399012093980126EC30E030939B010D
:1009C00020939A0110929D0110929E0110929F0116
:1009D0001092A0011092240210922302809325020B
:1009E00090932602A0932702B09328028AE191E017
:1009F00090932202809321021092380210923702C3
:100A000010923A021092390210923C0210923B026C
:100A100010923E0210923D0260913F026E7F6D7F08
:100A200060933F026695617081E068270E945704D9
:100A3000EFEAF0E02491EBE9F0E08491882399F06B
:100A400090E0880F991FFC01EA57FF4FA591B491E0
:100A5000FC01E057FF4F859194918FB7F894EC918A
:100A6000E22BEC938FBFEFEAF0E0E491E0933102E8
:100A7000EBE9F0E0E491F0E0EE0FFF1FE057FF4FED
:100A80008591949190933302809332020EEA10E0A4
:100A9000F8012491CAE9D0E0FE0184918823C9F0CD
:100AA00090E0880F991FFC01EA57FF4FA591B49180
:100AB000FC01E057FF4F459154913FB7F8949C914A
:100AC000822F809598239C93FA01908189238083BB
:100AD0003FBF80913F0281FD04C061E080E00E9441
:100AE000570410922D02F801049100932E02FE018A
:100AF000C491EC2FF0E0EE0FFF1FE458FF4F8591FB
:100B000094919093300280932F02DF91CF911F91A7
:100B10000F910895789484B5826084BD84B5816016
:100B200084BD85B5826085BD85B5816085BD8091B8
:100B30006E00816080936E00109281008091810030
:100B40008260809381008091810081608093810028
:100B5000809180008160809380008091B1008460EA
:100B60008093B1008091B00081608093B00080914B
:100B70007A00846080937A0080917A00826080930A
:100B80007A0080917A00816080937A0080917A0067
:100B9000806880937A001092C1008AB1846F8AB90C
:100BA00084B1866084B9E0919401F091950182E06E
:100BB0008083E0919001F09191011082E091920187
:100BC000F09193018FEC808310929C01E091980149
:100BD000F091990186E08083E0919601F091970170
:100BE000808180618083E0919601F09197018081FE
:100BF00088608083E0919601F09197018081806800
:100C00008083E0919601F091970180818F7D8083B0
:100C100010923C0210923B0210923A02109239025A
:100C200010923802109237028DE991E090933E02C3
:100C300080933D0290912D02963108F058C02DEB23
:100C400030E030933802209337022BE931E03093C3
:100C50003A02209339022CE231E030933C02209397
:100C60003B0240916800983058F031E09E3008F423
:100C700030E021E0822F01C0880F3A95EAF701C0E9
:100C800084E0842B80936800983038F09E3040F0E8
:100C9000963148F020E030E008C02DE630E005C095
:100CA0002BE630E002C02CE630E030933502209392
:100CB0003402983030F481E001C0880F9A95EAF749
:100CC0000EC0292F30E09E3018F42850310902C0A0
:100CD0002E50310981E001C0880F2A95EAF78093F0
:100CE000360280913D0290913E020197F1F780918A
:100CF0003B0290913C02892B49F1E0918201F091F5
:100D0000830182E0E132F80709F1309739F0A389D5
:100D1000B4899C918589809589238C9380913F0229
:100D20008E7F80933F02109280011092810181E2B8
:100D300092E09093830180938201E0913402F091DC
:100D40003502908180913602892B80834AE050E001
:100D50006BE271E084E891E00E94FD010E949A023A
:100D6000D1E082E0C82ED12CE12CF12C0E94B002FF
:100D700084E891E00E946001892BF1F184E891E020
:100D80000E943E01C82F682F84E891E00E948E01E6
:100D90000E949A02C433A9F03CF4C133F1F0C2338B
:100DA00029F50E9496020FC0C63331F07CF0C8339B
:100DB000E9F40E948E0202C00E9496020E948A02FA
:100DC00015C00E948E020E94920210C05C985D982D
:100DD00029985E985F982A9809C00E9496020E94FE
:100DE0009202809136018D278093360166E970E08A
:100DF00080E090E00E94500280913601882309F43F
:100E0000B5CF0E94B0024E970CF0B0CF0E948E0278
:100E10000E948A020E94A402BC01990F880B990BC0
:100E20000E9450020E949807A70196010E94F207B3
:100E30006130710529F40E948E020E94920204C062
:100E40000E9496020E948A020E94A402BC01990F8D
:100E5000880B990B0E9450020E9496020E949202F7
:100E600085CF8AE191E090932202809321028091C4
:100E70008201909183018152924071F4E091340299
:100E8000F09135029081809136028095892380838C
:100E9000109283011092820108958F929F92AF92D7
:100EA000BF92CF92DF92EF92FF92CF93DF93EC014C
:100EB000688179818A819B81611571058105910520
:100EC00021F464E279ED8BE597E02DE133EF41E029
:100ED00050E00E94F20749015A019B01AC01A7EAC8
:100EE000B1E40E9411086B017C01ACEEB4EFA501E6
:100EF00094010E941F08DC01CB018C0D9D1DAE1DCD
:100F0000BF1DB7FF03C00197A109B048888399832B
:100F1000AA83BB83BC01CD019F77DF91CF91FF9066
:100F2000EF90DF90CF90BF90AF909F908F900895FB
:100F30008F929F92AF92BF92CF92DF92EF92FF92E9
:100F40006091000170910101809102019091030173
:100F5000611571058105910521F464E279ED8BE558
:100F600097E02DE133EF41E050E00E94F2074901A4
:100F70005A019B01AC01A7EAB1E40E9411086B0180
:100F80007C01ACEEB4EFA50194010E941F08DC01C6
:100F9000CB018C0D9D1DAE1DBF1DB7FF03C001977A
:100FA000A109B0488093000190930101A093020130
:100FB000B0930301BC01CD019F77FF90EF90DF90CC
:100FC000CF90BF90AF909F908F9008956093000155
:100FD0007093010180930201909303010895F894A6
:100FE0000C94B909052E97FB1EF400940E94090881
:100FF00057FD07D00E94240807FC03D04EF40C9440
:10100000090850954095309521953F4F4F4F5F4FC0
:10101000089590958095709561957F4F8F4F9F4F64
:1010200008950E944608A59F900DB49F900DA49F1F
:10103000800D911D11240895B7FF0C9411080E9492
:101040001108821B930B0895A1E21A2EAA1BBB1B49
:10105000FD010DC0AA1FBB1FEE1FFF1FA217B30784
:10106000E407F50720F0A21BB30BE40BF50B661F9A
:10107000771F881F991F1A9469F76095709580955E
:1010800090959B01AC01BD01CF010895A29FB001D5
:10109000B39FC001A39F700D811D1124911DB29FAC
:1010A000700D811D1124911D089581E090E0F89448
:1010B0000C94B9090E9461086894B1110C94F0086D
:1010C00008950E94D50888F09F5798F0B92F992766
:1010D000B751B0F0E1F0660F771F881F991F1AF023
:1010E000BA95C9F714C0B13091F00E94EF08B1E091
:1010F00008950C94EF08672F782F8827B85F39F090
:10110000B93FCCF3869577956795B395D9F73EF4BB
:1011100090958095709561957F4F8F4F9F4F089563
:10112000E89409C097FB3EF4909580957095619581
:101130007F4F8F4F9F4F9923A9F0F92F96E9BB2737
:101140009395F695879577956795B795F111F8CFB3
:10115000FAF4BB0F11F460FF1BC06F5F7F4F8F4F1E
:101160009F4F16C0882311F096E911C0772321F014
:101170009EE8872F762F05C0662371F096E8862FAC
:1011800070E060E02AF09A95660F771F881FDAF703
:10119000880F9695879597F9089557FD9058440FB5
:1011A000551F59F05F3F71F04795880F97FB991FC6
:1011B00061F09F3F79F08795089512161306140683
:1011C000551FF2CF4695F1DF08C016161706180610
:1011D000991FF1CF86957105610508940895E894EB
:1011E000BB2766277727CB0197F908950E94090945
:1011F0000C947A090E946C0938F00E94730920F05F
:10120000952311F00C9463090C94690911240C9432
:10121000F0080E94CD0870F3959FC1F3950F50E040
:10122000551F629FF001729FBB27F00DB11D639F98
:10123000AA27F00DB11DAA1F649F6627B00DA11D3E
:10124000661F829F2227B00DA11D621F739FB00DE4
:10125000A11D621F839FA00D611D221F749F332754
:10126000A00D611D231F849F600D211D822F762FED
:101270006A2F11249F5750409AF0F1F088234AF0CA
:10128000EE0FFF1FBB1F661F771F881F9150504036
:10129000A9F79E3F510580F00C9463090C94F00867
:1012A0005F3FE4F3983ED4F3869577956795B795BD
:1012B000F795E7959F5FC1F7FE2B880F911D9695D7
:1012C000879597F9089597F99F6780E870E060E047
:1012D00008959FEF80EC089500240A9416161706CF
:1012E00018060906089500240A9412161306140617
:1012F00005060895092E0394000C11F4882352F07A
:10130000BB0F40F4BF2B11F460FF04C06F5F7F4F31
:101310008F4F9F4F089597FB072E16F4009407D028
:1013200077FD09D00E949F0907FC05D03EF49095F7
:1013300081959F4F0895709561957F4F0895AA1BE1
:10134000BB1B51E107C0AA1FBB1FA617B70710F0B0
:10135000A61BB70B881F991F5A95A9F780959095E2
:10136000BC01CD010895EE0FFF1F0590F491E02D13
:10137000099410E0C2E6D0E004C0FE010E94B30967
:0C1380002196C336D107C9F7F894FFCFBF
:10138C0001000000000000008E01FD012F01DB01B7
:10139C0060013E01520100000000A600FD01280280
:1013AC00A500F6000E018D000D0A005374617274D5
:0613BC0065642E2E2E00D8
:00000001FF
